:100000000C9472000C947E000C947E000C947E0084
:100010000C947E000C947E000C947E000C947E0068
:100020000C947E000C947E000C947E000C947E0058
:100030000C947E000C947E000C947E000C947E0048
:100040000C947E000C947E000C947E000C947E0038
:100050000C947E000C947E000C947E000C947E0028
:100060000C947E000C947E000C947E000C947E0018
:100070000C947E000C947E000C947E000C947E0008
:100080000C947E000C947E000C947E000C947E00F8
:100090000C947E000C947E000C947E000C947E00E8
:1000A0000C947E000C947E000C947E000C947E00D8
:1000B0000C947E000C947E000C947E000C947E00C8
:1000C0000C947E000C947E000C947E000C947E00B8
:1000D0000C947E000C947E000C947E000C947E00A8
:1000E0000C947E0011241FBECFEFD1E2DEBFCDBF46
:1000F00000E00CBF0E94AD000C94CA000C940000FC
:10010000E4E0F1E080818FEF8083E5E0F1E0808141
:100110008A6F80830895E4E0F1E080811082E5E059
:10012000F1E08081108208950C948000E5E0F1E018
:10013000808110820895CF93DF931F92CDB7DEB7F1
:1001400089830E949600E5E0F1E090818981982BF7
:1001500090830F90DF91CF9108950E9480002FEF40
:100160008FEF96E8215080409040E1F700C00000FA
:100170000E94960084E690E00E949B002FEF8FEF94
:1001800096E8215080409040E1F700C000000E94B6
:080190008B000895F894FFCFE5
:00000001FF
