:100000000C9472000C9486000C9486000C9486006C
:100010000C9486000C9486000C9486000C94860048
:100020000C9486000C9486000C9486000C94860038
:100030000C9486000C9486000C9486000C94860028
:100040000C9486000C9486000C9486000C94860018
:100050000C9486000C9486000C9486000C94860008
:100060000C9486000C9486000C9486000C948600F8
:100070000C9486000C9486000C9486000C948600E8
:100080000C9486000C9486000C9486000C948600D8
:100090000C9486000C9486000C9486000C948600C8
:1000A0000C9486000C9486000C9486000C948600B8
:1000B0000C9486000C9486000C9486000C948600A8
:1000C0000C9486000C9486000C9486000C94860098
:1000D0000C9486000C9486000C9486000C94860088
:1000E0000C94860011241FBECFEFD1E2DEBFCDBF3E
:1000F00000E00CBF12E0A0E0B2E001C01D92AC3005
:10010000B107E1F70E94F1010C942B020C9400005E
:1001100063E070E00E9417029C0181E090E0232BD5
:1001200011F080E090E0089587B1876F87B988B1BA
:10013000807888B908950C94940086E69EE0019733
:10014000F1F700004098419880E388B9429A8FEF18
:1001500097E40197F1F700C00000429886E69EE020
:100160000197F1F700004098419880E388B9429ADE
:100170008FEF97E40197F1F700C00000429886E600
:100180009EE00197F1F700004098419880E388B91C
:10019000429A8FEF97E40197F1F700C00000429870
:1001A00086E69EE00197F1F700004098419880E2D2
:1001B00088B9429A86E69EE00197F1F700004298DE
:1001C000089598B19F7098B928B1982F907F922B7D
:1001D00098B940984198429AEFEFF7E43197F1F7D8
:1001E00000C00000429898B19F7098B998B182956C
:1001F000807F892B88B940984198429A8FEF97E485
:100200000197F1F700C000004298089586E69EE04D
:100210000197F1F7000088E20E94E10081E00E946E
:10022000E10086E00E94E1008EE00E94E10080E8AB
:100230000C94E10098B19F7098B928B1982F907FE5
:10024000922B98B9409A4198429AEFEFF7E4319790
:10025000F1F700C0000042988295807F98B19F70AE
:1002600098B998B1892B88B9409A4198429A8FEFF2
:1002700097E40197F1F700C000004298089580E8E4
:100280000C94E100CF93DF93EC018991882319F05E
:100290000E941A01FACFDF91CF910895982F862FEF
:1002A000923059F01CF4913031F00895933039F0C8
:1002B000943039F00895815805C0815403C08D569B
:1002C00001C08D520C94E1000F931F93CF93DF93E5
:1002D0008A01E901882311F0611103C00E943F01E6
:1002E00002C00E944E01C530D10579F4C80160E119
:1002F00077E20E941702605D7F4F70930102609366
:100300000002862F0E941A0103C0C430D10559F59E
:10031000C80168EE73E00E941702CB0170930302DC
:10032000609302026AE070E00E941702C096909308
:100330000B0280930A020E941A01C80164E670E071
:100340000E941702CB0170930302609302026AE0DD
:1003500070E00E941702C0969093070280930602F5
:100360000E941A0106C0C330D10539F3C230D1054D
:1003700051F52AE030E0C801B9010E941702CB0113
:100380007093030260930202B9010E941702C096A3
:1003900090930502809304020E941A01C8016AE04A
:1003A00070E00E941702C0969093090280930802A1
:1003B0000E941A0126975CF085E4DF91CF911F918E
:1003C0000F910C941A01C130D105A1F7E7CFDF914D
:1003D000CF911F910F910895F8940E949400789402
:1003E00008950E94EC010E949D000E94060121E0F8
:1003F00030E041E050E060E070E080E090E00E949A
:1004000064012FEF8FEF9CE2215080409040E1F794
:1004100000C0000021E030E040E050E060E070E02B
:1004200080E090E00E94640180E090E00895AA1BC3
:10043000BB1B51E107C0AA1FBB1FA617B70710F0CF
:10044000A61BB70B881F991F5A95A9F78095909501
:0A045000BC01CD010895F894FFCF20
:00000001FF
